{
  "_format": "hh-sol-artifact-1",
  "contractName": "NFT",
  "sourceName": "contracts/NFT.sol",
  "abi": [
    {
      "inputs": [],
      "stateMutability": "nonpayable",
      "type": "constructor"
    },
    {
      "anonymous": false,
      "inputs": [
        {
          "indexed": true,
          "internalType": "address",
          "name": "owner",
          "type": "address"
        },
        {
          "indexed": true,
          "internalType": "address",
          "name": "approved",
          "type": "address"
        },
        {
          "indexed": true,
          "internalType": "uint256",
          "name": "tokenId",
          "type": "uint256"
        }
      ],
      "name": "Approval",
      "type": "event"
    },
    {
      "anonymous": false,
      "inputs": [
        {
          "indexed": true,
          "internalType": "address",
          "name": "owner",
          "type": "address"
        },
        {
          "indexed": true,
          "internalType": "address",
          "name": "operator",
          "type": "address"
        },
        {
          "indexed": false,
          "internalType": "bool",
          "name": "approved",
          "type": "bool"
        }
      ],
      "name": "ApprovalForAll",
      "type": "event"
    },
    {
      "anonymous": false,
      "inputs": [
        {
          "indexed": true,
          "internalType": "address",
          "name": "from",
          "type": "address"
        },
        {
          "indexed": true,
          "internalType": "address",
          "name": "to",
          "type": "address"
        },
        {
          "indexed": true,
          "internalType": "uint256",
          "name": "tokenId",
          "type": "uint256"
        }
      ],
      "name": "Transfer",
      "type": "event"
    },
    {
      "anonymous": false,
      "inputs": [
        {
          "indexed": true,
          "internalType": "uint256",
          "name": "tokenId",
          "type": "uint256"
        },
        {
          "indexed": false,
          "internalType": "address",
          "name": "seller",
          "type": "address"
        },
        {
          "indexed": false,
          "internalType": "address",
          "name": "owner",
          "type": "address"
        },
        {
          "indexed": false,
          "internalType": "uint256",
          "name": "price",
          "type": "uint256"
        },
        {
          "indexed": false,
          "internalType": "bool",
          "name": "sold",
          "type": "bool"
        },
        {
          "indexed": false,
          "internalType": "string",
          "name": "title",
          "type": "string"
        },
        {
          "indexed": false,
          "internalType": "string",
          "name": "description",
          "type": "string"
        },
        {
          "indexed": false,
          "internalType": "string",
          "name": "target",
          "type": "string"
        },
        {
          "indexed": false,
          "internalType": "string",
          "name": "deadline",
          "type": "string"
        },
        {
          "indexed": false,
          "internalType": "string",
          "name": "image",
          "type": "string"
        }
      ],
      "name": "idMarketItemCreated",
      "type": "event"
    },
    {
      "inputs": [
        {
          "internalType": "address",
          "name": "to",
          "type": "address"
        },
        {
          "internalType": "uint256",
          "name": "tokenId",
          "type": "uint256"
        }
      ],
      "name": "approve",
      "outputs": [],
      "stateMutability": "nonpayable",
      "type": "function"
    },
    {
      "inputs": [
        {
          "internalType": "address",
          "name": "owner",
          "type": "address"
        }
      ],
      "name": "balanceOf",
      "outputs": [
        {
          "internalType": "uint256",
          "name": "",
          "type": "uint256"
        }
      ],
      "stateMutability": "view",
      "type": "function"
    },
    {
      "inputs": [
        {
          "internalType": "uint256",
          "name": "tokenId",
          "type": "uint256"
        }
      ],
      "name": "createMarketSale",
      "outputs": [],
      "stateMutability": "payable",
      "type": "function"
    },
    {
      "inputs": [
        {
          "internalType": "string",
          "name": "title",
          "type": "string"
        },
        {
          "internalType": "string",
          "name": "description",
          "type": "string"
        },
        {
          "internalType": "string",
          "name": "target",
          "type": "string"
        },
        {
          "internalType": "string",
          "name": "deadline",
          "type": "string"
        },
        {
          "internalType": "string",
          "name": "image",
          "type": "string"
        },
        {
          "internalType": "string",
          "name": "tokenURI",
          "type": "string"
        },
        {
          "internalType": "uint256",
          "name": "price",
          "type": "uint256"
        }
      ],
      "name": "createToken",
      "outputs": [
        {
          "internalType": "uint256",
          "name": "",
          "type": "uint256"
        }
      ],
      "stateMutability": "payable",
      "type": "function"
    },
    {
      "inputs": [],
      "name": "fetchItemListed",
      "outputs": [
        {
          "components": [
            {
              "internalType": "uint256",
              "name": "tokenId",
              "type": "uint256"
            },
            {
              "internalType": "address payable",
              "name": "seller",
              "type": "address"
            },
            {
              "internalType": "address payable",
              "name": "owner",
              "type": "address"
            },
            {
              "internalType": "uint256",
              "name": "price",
              "type": "uint256"
            },
            {
              "internalType": "bool",
              "name": "sold",
              "type": "bool"
            },
            {
              "internalType": "string",
              "name": "title",
              "type": "string"
            },
            {
              "internalType": "string",
              "name": "description",
              "type": "string"
            },
            {
              "internalType": "string",
              "name": "target",
              "type": "string"
            },
            {
              "internalType": "string",
              "name": "deadline",
              "type": "string"
            },
            {
              "internalType": "string",
              "name": "image",
              "type": "string"
            }
          ],
          "internalType": "struct NFT.MarketItem[]",
          "name": "",
          "type": "tuple[]"
        }
      ],
      "stateMutability": "view",
      "type": "function"
    },
    {
      "inputs": [],
      "name": "fetchMarketItem",
      "outputs": [
        {
          "components": [
            {
              "internalType": "uint256",
              "name": "tokenId",
              "type": "uint256"
            },
            {
              "internalType": "address payable",
              "name": "seller",
              "type": "address"
            },
            {
              "internalType": "address payable",
              "name": "owner",
              "type": "address"
            },
            {
              "internalType": "uint256",
              "name": "price",
              "type": "uint256"
            },
            {
              "internalType": "bool",
              "name": "sold",
              "type": "bool"
            },
            {
              "internalType": "string",
              "name": "title",
              "type": "string"
            },
            {
              "internalType": "string",
              "name": "description",
              "type": "string"
            },
            {
              "internalType": "string",
              "name": "target",
              "type": "string"
            },
            {
              "internalType": "string",
              "name": "deadline",
              "type": "string"
            },
            {
              "internalType": "string",
              "name": "image",
              "type": "string"
            }
          ],
          "internalType": "struct NFT.MarketItem[]",
          "name": "item",
          "type": "tuple[]"
        }
      ],
      "stateMutability": "view",
      "type": "function"
    },
    {
      "inputs": [],
      "name": "fetchMyNFT",
      "outputs": [
        {
          "components": [
            {
              "internalType": "uint256",
              "name": "tokenId",
              "type": "uint256"
            },
            {
              "internalType": "address payable",
              "name": "seller",
              "type": "address"
            },
            {
              "internalType": "address payable",
              "name": "owner",
              "type": "address"
            },
            {
              "internalType": "uint256",
              "name": "price",
              "type": "uint256"
            },
            {
              "internalType": "bool",
              "name": "sold",
              "type": "bool"
            },
            {
              "internalType": "string",
              "name": "title",
              "type": "string"
            },
            {
              "internalType": "string",
              "name": "description",
              "type": "string"
            },
            {
              "internalType": "string",
              "name": "target",
              "type": "string"
            },
            {
              "internalType": "string",
              "name": "deadline",
              "type": "string"
            },
            {
              "internalType": "string",
              "name": "image",
              "type": "string"
            }
          ],
          "internalType": "struct NFT.MarketItem[]",
          "name": "",
          "type": "tuple[]"
        }
      ],
      "stateMutability": "view",
      "type": "function"
    },
    {
      "inputs": [
        {
          "internalType": "uint256",
          "name": "tokenId",
          "type": "uint256"
        }
      ],
      "name": "getApproved",
      "outputs": [
        {
          "internalType": "address",
          "name": "",
          "type": "address"
        }
      ],
      "stateMutability": "view",
      "type": "function"
    },
    {
      "inputs": [],
      "name": "getListingPrice",
      "outputs": [
        {
          "internalType": "uint256",
          "name": "",
          "type": "uint256"
        }
      ],
      "stateMutability": "view",
      "type": "function"
    },
    {
      "inputs": [
        {
          "internalType": "uint256",
          "name": "tokenId",
          "type": "uint256"
        }
      ],
      "name": "getMarketItemById",
      "outputs": [
        {
          "components": [
            {
              "internalType": "uint256",
              "name": "tokenId",
              "type": "uint256"
            },
            {
              "internalType": "address payable",
              "name": "seller",
              "type": "address"
            },
            {
              "internalType": "address payable",
              "name": "owner",
              "type": "address"
            },
            {
              "internalType": "uint256",
              "name": "price",
              "type": "uint256"
            },
            {
              "internalType": "bool",
              "name": "sold",
              "type": "bool"
            },
            {
              "internalType": "string",
              "name": "title",
              "type": "string"
            },
            {
              "internalType": "string",
              "name": "description",
              "type": "string"
            },
            {
              "internalType": "string",
              "name": "target",
              "type": "string"
            },
            {
              "internalType": "string",
              "name": "deadline",
              "type": "string"
            },
            {
              "internalType": "string",
              "name": "image",
              "type": "string"
            }
          ],
          "internalType": "struct NFT.MarketItem",
          "name": "item",
          "type": "tuple"
        }
      ],
      "stateMutability": "view",
      "type": "function"
    },
    {
      "inputs": [
        {
          "internalType": "address",
          "name": "owner",
          "type": "address"
        },
        {
          "internalType": "address",
          "name": "operator",
          "type": "address"
        }
      ],
      "name": "isApprovedForAll",
      "outputs": [
        {
          "internalType": "bool",
          "name": "",
          "type": "bool"
        }
      ],
      "stateMutability": "view",
      "type": "function"
    },
    {
      "inputs": [],
      "name": "name",
      "outputs": [
        {
          "internalType": "string",
          "name": "",
          "type": "string"
        }
      ],
      "stateMutability": "view",
      "type": "function"
    },
    {
      "inputs": [
        {
          "internalType": "uint256",
          "name": "tokenId",
          "type": "uint256"
        }
      ],
      "name": "ownerOf",
      "outputs": [
        {
          "internalType": "address",
          "name": "",
          "type": "address"
        }
      ],
      "stateMutability": "view",
      "type": "function"
    },
    {
      "inputs": [
        {
          "internalType": "uint256",
          "name": "tokenId",
          "type": "uint256"
        },
        {
          "internalType": "uint256",
          "name": "price",
          "type": "uint256"
        }
      ],
      "name": "reSellToken",
      "outputs": [],
      "stateMutability": "payable",
      "type": "function"
    },
    {
      "inputs": [
        {
          "internalType": "address",
          "name": "from",
          "type": "address"
        },
        {
          "internalType": "address",
          "name": "to",
          "type": "address"
        },
        {
          "internalType": "uint256",
          "name": "tokenId",
          "type": "uint256"
        }
      ],
      "name": "safeTransferFrom",
      "outputs": [],
      "stateMutability": "nonpayable",
      "type": "function"
    },
    {
      "inputs": [
        {
          "internalType": "address",
          "name": "from",
          "type": "address"
        },
        {
          "internalType": "address",
          "name": "to",
          "type": "address"
        },
        {
          "internalType": "uint256",
          "name": "tokenId",
          "type": "uint256"
        },
        {
          "internalType": "bytes",
          "name": "data",
          "type": "bytes"
        }
      ],
      "name": "safeTransferFrom",
      "outputs": [],
      "stateMutability": "nonpayable",
      "type": "function"
    },
    {
      "inputs": [
        {
          "internalType": "address",
          "name": "operator",
          "type": "address"
        },
        {
          "internalType": "bool",
          "name": "approved",
          "type": "bool"
        }
      ],
      "name": "setApprovalForAll",
      "outputs": [],
      "stateMutability": "nonpayable",
      "type": "function"
    },
    {
      "inputs": [
        {
          "internalType": "bytes4",
          "name": "interfaceId",
          "type": "bytes4"
        }
      ],
      "name": "supportsInterface",
      "outputs": [
        {
          "internalType": "bool",
          "name": "",
          "type": "bool"
        }
      ],
      "stateMutability": "view",
      "type": "function"
    },
    {
      "inputs": [],
      "name": "symbol",
      "outputs": [
        {
          "internalType": "string",
          "name": "",
          "type": "string"
        }
      ],
      "stateMutability": "view",
      "type": "function"
    },
    {
      "inputs": [
        {
          "internalType": "uint256",
          "name": "tokenId",
          "type": "uint256"
        }
      ],
      "name": "tokenURI",
      "outputs": [
        {
          "internalType": "string",
          "name": "",
          "type": "string"
        }
      ],
      "stateMutability": "view",
      "type": "function"
    },
    {
      "inputs": [
        {
          "internalType": "address",
          "name": "from",
          "type": "address"
        },
        {
          "internalType": "address",
          "name": "to",
          "type": "address"
        },
        {
          "internalType": "uint256",
          "name": "tokenId",
          "type": "uint256"
        }
      ],
      "name": "transferFrom",
      "outputs": [],
      "stateMutability": "nonpayable",
      "type": "function"
    },
    {
      "inputs": [
        {
          "internalType": "uint256",
          "name": "_listingPrice",
          "type": "uint256"
        }
      ],
      "name": "updateListingPrice",
      "outputs": [],
      "stateMutability": "payable",
      "type": "function"
    }
  ],
  "bytecode": "0x60806040526608e1bc9bf040006009553480156200001c57600080fd5b506040518060400160405280601381526020017f4e4654204d657461766572736520546f6b656e000000000000000000000000008152506040518060400160405280600581526020017f4d594e465400000000000000000000000000000000000000000000000000000081525081600090816200009a919062000355565b508060019081620000ac919062000355565b5050503373ffffffffffffffffffffffffffffffffffffffff16600a60009054906101000a905050506200043c565b600081519050919050565b7f4e487b7100000000000000000000000000000000000000000000000000000000600052604160045260246000fd5b7f4e487b7100000000000000000000000000000000000000000000000000000000600052602260045260246000fd5b600060028204905060018216806200015d57607f821691505b60208210810362000173576200017262000115565b5b50919050565b60008190508160005260206000209050919050565b60006020601f8301049050919050565b600082821b905092915050565b600060088302620001dd7fffffffffffffffffffffffffffffffffffffffffffffffffffffffffffffffff826200019e565b620001e986836200019e565b95508019841693508086168417925050509392505050565b6000819050919050565b6000819050919050565b600062000236620002306200022a8462000201565b6200020b565b62000201565b9050919050565b6000819050919050565b620002528362000215565b6200026a62000261826200023d565b848454620001ab565b825550505050565b600090565b6200028162000272565b6200028e81848462000247565b505050565b5b81811015620002b657620002aa60008262000277565b60018101905062000294565b5050565b601f8211156200030557620002cf8162000179565b620002da846200018e565b81016020851015620002ea578190505b62000302620002f9856200018e565b83018262000293565b50505b505050565b600082821c905092915050565b60006200032a600019846008026200030a565b1980831691505092915050565b600062000345838362000317565b9150826002028217905092915050565b6200036082620000db565b67ffffffffffffffff8111156200037c576200037b620000e6565b5b62000388825462000144565b62000395828285620002ba565b600060209050601f831160018114620003cd5760008415620003b8578287015190505b620003c4858262000337565b86555062000434565b601f198416620003dd8662000179565b60005b828110156200040757848901518255600182019150602085019450602081019050620003e0565b8683101562000427578489015162000423601f89168262000317565b8355505b6001600288020188555050505b505050505050565b61565d806200044c6000396000f3fe6080604052600436106101355760003560e01c806385535b25116100ab578063b88d4fde1161006f578063b88d4fde14610423578063be9af5361461044c578063c18763f714610468578063c87b56dd14610493578063e1791445146104d0578063e985e9c5146104fb57610135565b806385535b251461036c5780638fafd0211461038857806395d89b41146103b3578063a22cb465146103de578063ae677aa31461040757610135565b806312e85585116100fd57806312e855851461023857806323b872dd1461026357806342842e0e1461028c57806353dbceb1146102b55780636352211e146102f257806370a082311461032f57610135565b806301ffc9a71461013a57806306fdde0314610177578063081812fc146101a2578063095ea7b3146101df5780630c2d90ca14610208575b600080fd5b34801561014657600080fd5b50610161600480360381019061015c9190613ac7565b610538565b60405161016e9190613b0f565b60405180910390f35b34801561018357600080fd5b5061018c61061a565b6040516101999190613bba565b60405180910390f35b3480156101ae57600080fd5b506101c960048036038101906101c49190613c12565b6106ac565b6040516101d69190613c80565b60405180910390f35b3480156101eb57600080fd5b5061020660048036038101906102019190613cc7565b6106f2565b005b610222600480360381019061021d9190613e3c565b610809565b60405161022f9190613f95565b60405180910390f35b34801561024457600080fd5b5061024d610855565b60405161025a9190613f95565b60405180910390f35b34801561026f57600080fd5b5061028a60048036038101906102859190613fb0565b61085f565b005b34801561029857600080fd5b506102b360048036038101906102ae9190613fb0565b6108bf565b005b3480156102c157600080fd5b506102dc60048036038101906102d79190613c12565b6108df565b6040516102e99190614182565b60405180910390f35b3480156102fe57600080fd5b5061031960048036038101906103149190613c12565b610cc8565b6040516103269190613c80565b60405180910390f35b34801561033b57600080fd5b50610356600480360381019061035191906141a4565b610d4e565b6040516103639190613f95565b60405180910390f35b610386600480360381019061038191906141d1565b610e05565b005b34801561039457600080fd5b5061039d610ffa565b6040516103aa91906143c9565b60405180910390f35b3480156103bf57600080fd5b506103c861153d565b6040516103d59190613bba565b60405180910390f35b3480156103ea57600080fd5b5061040560048036038101906104009190614417565b6115cf565b005b610421600480360381019061041c9190613c12565b6115e5565b005b34801561042f57600080fd5b5061044a600480360381019061044591906144f8565b61167f565b005b61046660048036038101906104619190613c12565b6116e1565b005b34801561047457600080fd5b5061047d611979565b60405161048a91906143c9565b60405180910390f35b34801561049f57600080fd5b506104ba60048036038101906104b59190613c12565b611f40565b6040516104c79190613bba565b60405180910390f35b3480156104dc57600080fd5b506104e5612052565b6040516104f291906143c9565b60405180910390f35b34801561050757600080fd5b50610522600480360381019061051d919061457b565b612619565b60405161052f9190613b0f565b60405180910390f35b60007f80ac58cd000000000000000000000000000000000000000000000000000000007bffffffffffffffffffffffffffffffffffffffffffffffffffffffff1916827bffffffffffffffffffffffffffffffffffffffffffffffffffffffff1916148061060357507f5b5e139f000000000000000000000000000000000000000000000000000000007bffffffffffffffffffffffffffffffffffffffffffffffffffffffff1916827bffffffffffffffffffffffffffffffffffffffffffffffffffffffff1916145b806106135750610612826126ad565b5b9050919050565b606060008054610629906145ea565b80601f0160208091040260200160405190810160405280929190818152602001828054610655906145ea565b80156106a25780601f10610677576101008083540402835291602001916106a2565b820191906000526020600020905b81548152906001019060200180831161068557829003601f168201915b5050505050905090565b60006106b782612717565b6004600083815260200190815260200160002060009054906101000a900473ffffffffffffffffffffffffffffffffffffffff169050919050565b60006106fd82610cc8565b90508073ffffffffffffffffffffffffffffffffffffffff168373ffffffffffffffffffffffffffffffffffffffff160361076d576040517f08c379a00000000000000000000000000000000000000000000000000000000081526004016107649061468d565b60405180910390fd5b8073ffffffffffffffffffffffffffffffffffffffff1661078c612762565b73ffffffffffffffffffffffffffffffffffffffff1614806107bb57506107ba816107b5612762565b612619565b5b6107fa576040517f08c379a00000000000000000000000000000000000000000000000000000000081526004016107f19061471f565b60405180910390fd5b610804838361276a565b505050565b60006108156007612823565b60006108216007612839565b905061082d3382612847565b6108378185612a64565b61084681848b8b8b8b8b612ad1565b80915050979650505050505050565b6000600954905090565b61087061086a612762565b82612d72565b6108af576040517f08c379a00000000000000000000000000000000000000000000000000000000081526004016108a6906147b1565b60405180910390fd5b6108ba838383612e07565b505050565b6108da8383836040518060200160405280600081525061167f565b505050565b6108e76139da565b6000600b600084815260200190815260200160002060405180610140016040529081600082015481526020016001820160009054906101000a900473ffffffffffffffffffffffffffffffffffffffff1673ffffffffffffffffffffffffffffffffffffffff1673ffffffffffffffffffffffffffffffffffffffff1681526020016002820160009054906101000a900473ffffffffffffffffffffffffffffffffffffffff1673ffffffffffffffffffffffffffffffffffffffff1673ffffffffffffffffffffffffffffffffffffffff168152602001600382015481526020016004820160009054906101000a900460ff161515151581526020016005820180546109f3906145ea565b80601f0160208091040260200160405190810160405280929190818152602001828054610a1f906145ea565b8015610a6c5780601f10610a4157610100808354040283529160200191610a6c565b820191906000526020600020905b815481529060010190602001808311610a4f57829003601f168201915b50505050508152602001600682018054610a85906145ea565b80601f0160208091040260200160405190810160405280929190818152602001828054610ab1906145ea565b8015610afe5780601f10610ad357610100808354040283529160200191610afe565b820191906000526020600020905b815481529060010190602001808311610ae157829003601f168201915b50505050508152602001600782018054610b17906145ea565b80601f0160208091040260200160405190810160405280929190818152602001828054610b43906145ea565b8015610b905780601f10610b6557610100808354040283529160200191610b90565b820191906000526020600020905b815481529060010190602001808311610b7357829003601f168201915b50505050508152602001600882018054610ba9906145ea565b80601f0160208091040260200160405190810160405280929190818152602001828054610bd5906145ea565b8015610c225780601f10610bf757610100808354040283529160200191610c22565b820191906000526020600020905b815481529060010190602001808311610c0557829003601f168201915b50505050508152602001600982018054610c3b906145ea565b80601f0160208091040260200160405190810160405280929190818152602001828054610c67906145ea565b8015610cb45780601f10610c8957610100808354040283529160200191610cb4565b820191906000526020600020905b815481529060010190602001808311610c9757829003601f168201915b505050505081525050905080915050919050565b600080610cd483613100565b9050600073ffffffffffffffffffffffffffffffffffffffff168173ffffffffffffffffffffffffffffffffffffffff1603610d45576040517f08c379a0000000000000000000000000000000000000000000000000000000008152600401610d3c9061481d565b60405180910390fd5b80915050919050565b60008073ffffffffffffffffffffffffffffffffffffffff168273ffffffffffffffffffffffffffffffffffffffff1603610dbe576040517f08c379a0000000000000000000000000000000000000000000000000000000008152600401610db5906148af565b60405180910390fd5b600360008373ffffffffffffffffffffffffffffffffffffffff1673ffffffffffffffffffffffffffffffffffffffff168152602001908152602001600020549050919050565b3373ffffffffffffffffffffffffffffffffffffffff16600b600084815260200190815260200160002060020160009054906101000a900473ffffffffffffffffffffffffffffffffffffffff1673ffffffffffffffffffffffffffffffffffffffff1614610ea9576040517f08c379a0000000000000000000000000000000000000000000000000000000008152600401610ea090614941565b60405180910390fd5b6009543414610eed576040517f08c379a0000000000000000000000000000000000000000000000000000000008152600401610ee4906149ad565b60405180910390fd5b610ef7600861313d565b610f02333084612e07565b6000600b600084815260200190815260200160002060040160006101000a81548160ff02191690831515021790555033600b600084815260200190815260200160002060010160006101000a81548173ffffffffffffffffffffffffffffffffffffffff021916908373ffffffffffffffffffffffffffffffffffffffff16021790555030600b600084815260200190815260200160002060020160006101000a81548173ffffffffffffffffffffffffffffffffffffffff021916908373ffffffffffffffffffffffffffffffffffffffff16021790555080600b6000848152602001908152602001600020600301819055505050565b606060006110086007612839565b905060006110166008612839565b6110206007612839565b61102a91906149fc565b90506000808267ffffffffffffffff81111561104957611048613d11565b5b60405190808252806020026020018201604052801561108257816020015b61106f6139da565b8152602001906001900390816110675790505b50905060005b84811015611532573073ffffffffffffffffffffffffffffffffffffffff16600b60006001846110b89190614a30565b815260200190815260200160002060020160009054906101000a900473ffffffffffffffffffffffffffffffffffffffff1673ffffffffffffffffffffffffffffffffffffffff160361151f5760006001826111149190614a30565b90506000600b600083815260200190815260200160002090508060405180610140016040529081600082015481526020016001820160009054906101000a900473ffffffffffffffffffffffffffffffffffffffff1673ffffffffffffffffffffffffffffffffffffffff1673ffffffffffffffffffffffffffffffffffffffff1681526020016002820160009054906101000a900473ffffffffffffffffffffffffffffffffffffffff1673ffffffffffffffffffffffffffffffffffffffff1673ffffffffffffffffffffffffffffffffffffffff168152602001600382015481526020016004820160009054906101000a900460ff16151515158152602001600582018054611225906145ea565b80601f0160208091040260200160405190810160405280929190818152602001828054611251906145ea565b801561129e5780601f106112735761010080835404028352916020019161129e565b820191906000526020600020905b81548152906001019060200180831161128157829003601f168201915b505050505081526020016006820180546112b7906145ea565b80601f01602080910402602001604051908101604052809291908181526020018280546112e3906145ea565b80156113305780601f1061130557610100808354040283529160200191611330565b820191906000526020600020905b81548152906001019060200180831161131357829003601f168201915b50505050508152602001600782018054611349906145ea565b80601f0160208091040260200160405190810160405280929190818152602001828054611375906145ea565b80156113c25780601f10611397576101008083540402835291602001916113c2565b820191906000526020600020905b8154815290600101906020018083116113a557829003601f168201915b505050505081526020016008820180546113db906145ea565b80601f0160208091040260200160405190810160405280929190818152602001828054611407906145ea565b80156114545780601f1061142957610100808354040283529160200191611454565b820191906000526020600020905b81548152906001019060200180831161143757829003601f168201915b5050505050815260200160098201805461146d906145ea565b80601f0160208091040260200160405190810160405280929190818152602001828054611499906145ea565b80156114e65780601f106114bb576101008083540402835291602001916114e6565b820191906000526020600020905b8154815290600101906020018083116114c957829003601f168201915b50505050508152505084868151811061150257611501614a64565b5b602002602001018190525060018561151a9190614a30565b945050505b808061152a90614a93565b915050611088565b508094505050505090565b60606001805461154c906145ea565b80601f0160208091040260200160405190810160405280929190818152602001828054611578906145ea565b80156115c55780601f1061159a576101008083540402835291602001916115c5565b820191906000526020600020905b8154815290600101906020018083116115a857829003601f168201915b5050505050905090565b6115e16115da612762565b8383613199565b5050565b600a60009054906101000a900473ffffffffffffffffffffffffffffffffffffffff1673ffffffffffffffffffffffffffffffffffffffff163373ffffffffffffffffffffffffffffffffffffffff1614611675576040517f08c379a000000000000000000000000000000000000000000000000000000000815260040161166c90614b4d565b60405180910390fd5b8060098190555050565b61169061168a612762565b83612d72565b6116cf576040517f08c379a00000000000000000000000000000000000000000000000000000000081526004016116c6906147b1565b60405180910390fd5b6116db84848484613305565b50505050565b6000600b600083815260200190815260200160002060030154905061170581613361565b61170e34613361565b803414611750576040517f08c379a000000000000000000000000000000000000000000000000000000000815260040161174790614c05565b60405180910390fd5b600b600083815260200190815260200160002060010160009054906101000a900473ffffffffffffffffffffffffffffffffffffffff1673ffffffffffffffffffffffffffffffffffffffff163373ffffffffffffffffffffffffffffffffffffffff16036117f4576040517f08c379a00000000000000000000000000000000000000000000000000000000081526004016117eb90614c71565b60405180910390fd5b33600b600084815260200190815260200160002060020160006101000a81548173ffffffffffffffffffffffffffffffffffffffff021916908373ffffffffffffffffffffffffffffffffffffffff1602179055506001600b600084815260200190815260200160002060040160006101000a81548160ff0219169083151502179055506118826008612823565b61188d303384612e07565b600a60009054906101000a900473ffffffffffffffffffffffffffffffffffffffff1673ffffffffffffffffffffffffffffffffffffffff166108fc6009549081150290604051600060405180830381858888f193505050501580156118f7573d6000803e3d6000fd5b50600b600083815260200190815260200160002060010160009054906101000a900473ffffffffffffffffffffffffffffffffffffffff1673ffffffffffffffffffffffffffffffffffffffff166108fc349081150290604051600060405180830381858888f19350505050158015611974573d6000803e3d6000fd5b505050565b606060006119876007612839565b905060008060005b83811015611a2f573373ffffffffffffffffffffffffffffffffffffffff16600b60006001846119bf9190614a30565b815260200190815260200160002060020160009054906101000a900473ffffffffffffffffffffffffffffffffffffffff1673ffffffffffffffffffffffffffffffffffffffff1603611a1c57600183611a199190614a30565b92505b8080611a2790614a93565b91505061198f565b5060008267ffffffffffffffff811115611a4c57611a4b613d11565b5b604051908082528060200260200182016040528015611a8557816020015b611a726139da565b815260200190600190039081611a6a5790505b50905060005b84811015611f35573373ffffffffffffffffffffffffffffffffffffffff16600b6000600184611abb9190614a30565b815260200190815260200160002060020160009054906101000a900473ffffffffffffffffffffffffffffffffffffffff1673ffffffffffffffffffffffffffffffffffffffff1603611f22576000600182611b179190614a30565b90506000600b600083815260200190815260200160002060405180610140016040529081600082015481526020016001820160009054906101000a900473ffffffffffffffffffffffffffffffffffffffff1673ffffffffffffffffffffffffffffffffffffffff1673ffffffffffffffffffffffffffffffffffffffff1681526020016002820160009054906101000a900473ffffffffffffffffffffffffffffffffffffffff1673ffffffffffffffffffffffffffffffffffffffff1673ffffffffffffffffffffffffffffffffffffffff168152602001600382015481526020016004820160009054906101000a900460ff16151515158152602001600582018054611c25906145ea565b80601f0160208091040260200160405190810160405280929190818152602001828054611c51906145ea565b8015611c9e5780601f10611c7357610100808354040283529160200191611c9e565b820191906000526020600020905b815481529060010190602001808311611c8157829003601f168201915b50505050508152602001600682018054611cb7906145ea565b80601f0160208091040260200160405190810160405280929190818152602001828054611ce3906145ea565b8015611d305780601f10611d0557610100808354040283529160200191611d30565b820191906000526020600020905b815481529060010190602001808311611d1357829003601f168201915b50505050508152602001600782018054611d49906145ea565b80601f0160208091040260200160405190810160405280929190818152602001828054611d75906145ea565b8015611dc25780601f10611d9757610100808354040283529160200191611dc2565b820191906000526020600020905b815481529060010190602001808311611da557829003601f168201915b50505050508152602001600882018054611ddb906145ea565b80601f0160208091040260200160405190810160405280929190818152602001828054611e07906145ea565b8015611e545780601f10611e2957610100808354040283529160200191611e54565b820191906000526020600020905b815481529060010190602001808311611e3757829003601f168201915b50505050508152602001600982018054611e6d906145ea565b80601f0160208091040260200160405190810160405280929190818152602001828054611e99906145ea565b8015611ee65780601f10611ebb57610100808354040283529160200191611ee6565b820191906000526020600020905b815481529060010190602001808311611ec957829003601f168201915b505050505081525050905080848681518110611f0557611f04614a64565b5b6020026020010181905250600185611f1d9190614a30565b945050505b8080611f2d90614a93565b915050611a8b565b508094505050505090565b6060611f4b82612717565b6000600660008481526020019081526020016000208054611f6b906145ea565b80601f0160208091040260200160405190810160405280929190818152602001828054611f97906145ea565b8015611fe45780601f10611fb957610100808354040283529160200191611fe4565b820191906000526020600020905b815481529060010190602001808311611fc757829003601f168201915b505050505090506000611ff56133fa565b9050600081510361200a57819250505061204d565b60008251111561203f578082604051602001612027929190614ccd565b6040516020818303038152906040529250505061204d565b61204884613411565b925050505b919050565b606060006120606007612839565b905060008060005b83811015612108573373ffffffffffffffffffffffffffffffffffffffff16600b60006001846120989190614a30565b815260200190815260200160002060010160009054906101000a900473ffffffffffffffffffffffffffffffffffffffff1673ffffffffffffffffffffffffffffffffffffffff16036120f5576001836120f29190614a30565b92505b808061210090614a93565b915050612068565b5060008267ffffffffffffffff81111561212557612124613d11565b5b60405190808252806020026020018201604052801561215e57816020015b61214b6139da565b8152602001906001900390816121435790505b50905060005b8481101561260e573373ffffffffffffffffffffffffffffffffffffffff16600b60006001846121949190614a30565b815260200190815260200160002060010160009054906101000a900473ffffffffffffffffffffffffffffffffffffffff1673ffffffffffffffffffffffffffffffffffffffff16036125fb5760006001826121f09190614a30565b90506000600b600083815260200190815260200160002090508060405180610140016040529081600082015481526020016001820160009054906101000a900473ffffffffffffffffffffffffffffffffffffffff1673ffffffffffffffffffffffffffffffffffffffff1673ffffffffffffffffffffffffffffffffffffffff1681526020016002820160009054906101000a900473ffffffffffffffffffffffffffffffffffffffff1673ffffffffffffffffffffffffffffffffffffffff1673ffffffffffffffffffffffffffffffffffffffff168152602001600382015481526020016004820160009054906101000a900460ff16151515158152602001600582018054612301906145ea565b80601f016020809104026020016040519081016040528092919081815260200182805461232d906145ea565b801561237a5780601f1061234f5761010080835404028352916020019161237a565b820191906000526020600020905b81548152906001019060200180831161235d57829003601f168201915b50505050508152602001600682018054612393906145ea565b80601f01602080910402602001604051908101604052809291908181526020018280546123bf906145ea565b801561240c5780601f106123e15761010080835404028352916020019161240c565b820191906000526020600020905b8154815290600101906020018083116123ef57829003601f168201915b50505050508152602001600782018054612425906145ea565b80601f0160208091040260200160405190810160405280929190818152602001828054612451906145ea565b801561249e5780601f106124735761010080835404028352916020019161249e565b820191906000526020600020905b81548152906001019060200180831161248157829003601f168201915b505050505081526020016008820180546124b7906145ea565b80601f01602080910402602001604051908101604052809291908181526020018280546124e3906145ea565b80156125305780601f1061250557610100808354040283529160200191612530565b820191906000526020600020905b81548152906001019060200180831161251357829003601f168201915b50505050508152602001600982018054612549906145ea565b80601f0160208091040260200160405190810160405280929190818152602001828054612575906145ea565b80156125c25780601f10612597576101008083540402835291602001916125c2565b820191906000526020600020905b8154815290600101906020018083116125a557829003601f168201915b5050505050815250508486815181106125de576125dd614a64565b5b60200260200101819052506001856125f69190614a30565b945050505b808061260690614a93565b915050612164565b508094505050505090565b6000600560008473ffffffffffffffffffffffffffffffffffffffff1673ffffffffffffffffffffffffffffffffffffffff16815260200190815260200160002060008373ffffffffffffffffffffffffffffffffffffffff1673ffffffffffffffffffffffffffffffffffffffff16815260200190815260200160002060009054906101000a900460ff16905092915050565b60007f01ffc9a7000000000000000000000000000000000000000000000000000000007bffffffffffffffffffffffffffffffffffffffffffffffffffffffff1916827bffffffffffffffffffffffffffffffffffffffffffffffffffffffff1916149050919050565b61272081613479565b61275f576040517f08c379a00000000000000000000000000000000000000000000000000000000081526004016127569061481d565b60405180910390fd5b50565b600033905090565b816004600083815260200190815260200160002060006101000a81548173ffffffffffffffffffffffffffffffffffffffff021916908373ffffffffffffffffffffffffffffffffffffffff160217905550808273ffffffffffffffffffffffffffffffffffffffff166127dd83610cc8565b73ffffffffffffffffffffffffffffffffffffffff167f8c5be1e5ebec7d5bd14f71427d1e84f3dd0314c0f7b2291e5b200ac8c7c3b92560405160405180910390a45050565b6001816000016000828254019250508190555050565b600081600001549050919050565b600073ffffffffffffffffffffffffffffffffffffffff168273ffffffffffffffffffffffffffffffffffffffff16036128b6576040517f08c379a00000000000000000000000000000000000000000000000000000000081526004016128ad90614d3d565b60405180910390fd5b6128bf81613479565b156128ff576040517f08c379a00000000000000000000000000000000000000000000000000000000081526004016128f690614da9565b60405180910390fd5b61290d6000838360016134ba565b61291681613479565b15612956576040517f08c379a000000000000000000000000000000000000000000000000000000000815260040161294d90614da9565b60405180910390fd5b6001600360008473ffffffffffffffffffffffffffffffffffffffff1673ffffffffffffffffffffffffffffffffffffffff16815260200190815260200160002060008282540192505081905550816002600083815260200190815260200160002060006101000a81548173ffffffffffffffffffffffffffffffffffffffff021916908373ffffffffffffffffffffffffffffffffffffffff160217905550808273ffffffffffffffffffffffffffffffffffffffff16600073ffffffffffffffffffffffffffffffffffffffff167fddf252ad1be2c89b69c2b068fc378daa952ba7f163c4a11628f55a4df523b3ef60405160405180910390a4612a606000838360016135e0565b5050565b612a6d82613479565b612aac576040517f08c379a0000000000000000000000000000000000000000000000000000000008152600401612aa390614e3b565b60405180910390fd5b80600660008481526020019081526020016000209081612acc9190615007565b505050565b60008611612b14576040517f08c379a0000000000000000000000000000000000000000000000000000000008152600401612b0b90615125565b60405180910390fd5b6009543414612b58576040517f08c379a0000000000000000000000000000000000000000000000000000000008152600401612b4f906151b7565b60405180910390fd5b6040518061014001604052808881526020013373ffffffffffffffffffffffffffffffffffffffff1681526020013073ffffffffffffffffffffffffffffffffffffffff16815260200187815260200160001515815260200186815260200185815260200184815260200183815260200182815250600b60008981526020019081526020016000206000820151816000015560208201518160010160006101000a81548173ffffffffffffffffffffffffffffffffffffffff021916908373ffffffffffffffffffffffffffffffffffffffff16021790555060408201518160020160006101000a81548173ffffffffffffffffffffffffffffffffffffffff021916908373ffffffffffffffffffffffffffffffffffffffff1602179055506060820151816003015560808201518160040160006101000a81548160ff02191690831515021790555060a0820151816005019081612cb79190615007565b5060c0820151816006019081612ccd9190615007565b5060e0820151816007019081612ce39190615007565b50610100820151816008019081612cfa9190615007565b50610120820151816009019081612d119190615007565b50905050612d20333089612e07565b867f62f8d522550bf0223eacae800750707216823273a2dc9cf3d9cba404887e456133308960008a8a8a8a8a604051612d61999897969594939291906151d7565b60405180910390a250505050505050565b600080612d7e83610cc8565b90508073ffffffffffffffffffffffffffffffffffffffff168473ffffffffffffffffffffffffffffffffffffffff161480612dc05750612dbf8185612619565b5b80612dfe57508373ffffffffffffffffffffffffffffffffffffffff16612de6846106ac565b73ffffffffffffffffffffffffffffffffffffffff16145b91505092915050565b8273ffffffffffffffffffffffffffffffffffffffff16612e2782610cc8565b73ffffffffffffffffffffffffffffffffffffffff1614612e7d576040517f08c379a0000000000000000000000000000000000000000000000000000000008152600401612e74906152f9565b60405180910390fd5b600073ffffffffffffffffffffffffffffffffffffffff168273ffffffffffffffffffffffffffffffffffffffff1603612eec576040517f08c379a0000000000000000000000000000000000000000000000000000000008152600401612ee39061538b565b60405180910390fd5b612ef983838360016134ba565b8273ffffffffffffffffffffffffffffffffffffffff16612f1982610cc8565b73ffffffffffffffffffffffffffffffffffffffff1614612f6f576040517f08c379a0000000000000000000000000000000000000000000000000000000008152600401612f66906152f9565b60405180910390fd5b6004600082815260200190815260200160002060006101000a81549073ffffffffffffffffffffffffffffffffffffffff02191690556001600360008573ffffffffffffffffffffffffffffffffffffffff1673ffffffffffffffffffffffffffffffffffffffff168152602001908152602001600020600082825403925050819055506001600360008473ffffffffffffffffffffffffffffffffffffffff1673ffffffffffffffffffffffffffffffffffffffff16815260200190815260200160002060008282540192505081905550816002600083815260200190815260200160002060006101000a81548173ffffffffffffffffffffffffffffffffffffffff021916908373ffffffffffffffffffffffffffffffffffffffff160217905550808273ffffffffffffffffffffffffffffffffffffffff168473ffffffffffffffffffffffffffffffffffffffff167fddf252ad1be2c89b69c2b068fc378daa952ba7f163c4a11628f55a4df523b3ef60405160405180910390a46130fb83838360016135e0565b505050565b60006002600083815260200190815260200160002060009054906101000a900473ffffffffffffffffffffffffffffffffffffffff169050919050565b60008160000154905060008111613189576040517f08c379a0000000000000000000000000000000000000000000000000000000008152600401613180906153f7565b60405180910390fd5b6001810382600001819055505050565b8173ffffffffffffffffffffffffffffffffffffffff168373ffffffffffffffffffffffffffffffffffffffff1603613207576040517f08c379a00000000000000000000000000000000000000000000000000000000081526004016131fe90615463565b60405180910390fd5b80600560008573ffffffffffffffffffffffffffffffffffffffff1673ffffffffffffffffffffffffffffffffffffffff16815260200190815260200160002060008473ffffffffffffffffffffffffffffffffffffffff1673ffffffffffffffffffffffffffffffffffffffff16815260200190815260200160002060006101000a81548160ff0219169083151502179055508173ffffffffffffffffffffffffffffffffffffffff168373ffffffffffffffffffffffffffffffffffffffff167f17307eab39ab6107e8899845ad3d59bd9653f200f220920489ca2b5937696c31836040516132f89190613b0f565b60405180910390a3505050565b613310848484612e07565b61331c848484846135e6565b61335b576040517f08c379a0000000000000000000000000000000000000000000000000000000008152600401613352906154f5565b60405180910390fd5b50505050565b6133f7816040516024016133759190613f95565b6040516020818303038152906040527ff82c50f1000000000000000000000000000000000000000000000000000000007bffffffffffffffffffffffffffffffffffffffffffffffffffffffff19166020820180517bffffffffffffffffffffffffffffffffffffffffffffffffffffffff838183161783525050505061376d565b50565b606060405180602001604052806000815250905090565b606061341c82612717565b60006134266133fa565b905060008151116134465760405180602001604052806000815250613471565b8061345084613796565b604051602001613461929190614ccd565b6040516020818303038152906040525b915050919050565b60008073ffffffffffffffffffffffffffffffffffffffff1661349b83613100565b73ffffffffffffffffffffffffffffffffffffffff1614159050919050565b60018111156135da57600073ffffffffffffffffffffffffffffffffffffffff168473ffffffffffffffffffffffffffffffffffffffff161461354e5780600360008673ffffffffffffffffffffffffffffffffffffffff1673ffffffffffffffffffffffffffffffffffffffff168152602001908152602001600020600082825461354691906149fc565b925050819055505b600073ffffffffffffffffffffffffffffffffffffffff168373ffffffffffffffffffffffffffffffffffffffff16146135d95780600360008573ffffffffffffffffffffffffffffffffffffffff1673ffffffffffffffffffffffffffffffffffffffff16815260200190815260200160002060008282546135d19190614a30565b925050819055505b5b50505050565b50505050565b60006136078473ffffffffffffffffffffffffffffffffffffffff16613864565b15613760578373ffffffffffffffffffffffffffffffffffffffff1663150b7a02613630612762565b8786866040518563ffffffff1660e01b8152600401613652949392919061556a565b6020604051808303816000875af192505050801561368e57506040513d601f19601f8201168201806040525081019061368b91906155cb565b60015b613710573d80600081146136be576040519150601f19603f3d011682016040523d82523d6000602084013e6136c3565b606091505b506000815103613708576040517f08c379a00000000000000000000000000000000000000000000000000000000081526004016136ff906154f5565b60405180910390fd5b805181602001fd5b63150b7a0260e01b7bffffffffffffffffffffffffffffffffffffffffffffffffffffffff1916817bffffffffffffffffffffffffffffffffffffffffffffffffffffffff191614915050613765565b600190505b949350505050565b60008151905060006a636f6e736f6c652e6c6f679050602083016000808483855afa5050505050565b6060600060016137a584613887565b01905060008167ffffffffffffffff8111156137c4576137c3613d11565b5b6040519080825280601f01601f1916602001820160405280156137f65781602001600182028036833780820191505090505b509050600082602001820190505b600115613859578080600190039150507f3031323334353637383961626364656600000000000000000000000000000000600a86061a8153600a858161384d5761384c6155f8565b5b04945060008503613804575b819350505050919050565b6000808273ffffffffffffffffffffffffffffffffffffffff163b119050919050565b600080600090507a184f03e93ff9f4daa797ed6e38ed64bf6a1f01000000000000000083106138e5577a184f03e93ff9f4daa797ed6e38ed64bf6a1f01000000000000000083816138db576138da6155f8565b5b0492506040810190505b6d04ee2d6d415b85acef81000000008310613922576d04ee2d6d415b85acef81000000008381613918576139176155f8565b5b0492506020810190505b662386f26fc10000831061395157662386f26fc100008381613947576139466155f8565b5b0492506010810190505b6305f5e100831061397a576305f5e10083816139705761396f6155f8565b5b0492506008810190505b612710831061399f576127108381613995576139946155f8565b5b0492506004810190505b606483106139c257606483816139b8576139b76155f8565b5b0492506002810190505b600a83106139d1576001810190505b80915050919050565b60405180610140016040528060008152602001600073ffffffffffffffffffffffffffffffffffffffff168152602001600073ffffffffffffffffffffffffffffffffffffffff1681526020016000815260200160001515815260200160608152602001606081526020016060815260200160608152602001606081525090565b6000604051905090565b600080fd5b600080fd5b60007fffffffff0000000000000000000000000000000000000000000000000000000082169050919050565b613aa481613a6f565b8114613aaf57600080fd5b50565b600081359050613ac181613a9b565b92915050565b600060208284031215613add57613adc613a65565b5b6000613aeb84828501613ab2565b91505092915050565b60008115159050919050565b613b0981613af4565b82525050565b6000602082019050613b246000830184613b00565b92915050565b600081519050919050565b600082825260208201905092915050565b60005b83811015613b64578082015181840152602081019050613b49565b60008484015250505050565b6000601f19601f8301169050919050565b6000613b8c82613b2a565b613b968185613b35565b9350613ba6818560208601613b46565b613baf81613b70565b840191505092915050565b60006020820190508181036000830152613bd48184613b81565b905092915050565b6000819050919050565b613bef81613bdc565b8114613bfa57600080fd5b50565b600081359050613c0c81613be6565b92915050565b600060208284031215613c2857613c27613a65565b5b6000613c3684828501613bfd565b91505092915050565b600073ffffffffffffffffffffffffffffffffffffffff82169050919050565b6000613c6a82613c3f565b9050919050565b613c7a81613c5f565b82525050565b6000602082019050613c956000830184613c71565b92915050565b613ca481613c5f565b8114613caf57600080fd5b50565b600081359050613cc181613c9b565b92915050565b60008060408385031215613cde57613cdd613a65565b5b6000613cec85828601613cb2565b9250506020613cfd85828601613bfd565b9150509250929050565b600080fd5b600080fd5b7f4e487b7100000000000000000000000000000000000000000000000000000000600052604160045260246000fd5b613d4982613b70565b810181811067ffffffffffffffff82111715613d6857613d67613d11565b5b80604052505050565b6000613d7b613a5b565b9050613d878282613d40565b919050565b600067ffffffffffffffff821115613da757613da6613d11565b5b613db082613b70565b9050602081019050919050565b82818337600083830152505050565b6000613ddf613dda84613d8c565b613d71565b905082815260208101848484011115613dfb57613dfa613d0c565b5b613e06848285613dbd565b509392505050565b600082601f830112613e2357613e22613d07565b5b8135613e33848260208601613dcc565b91505092915050565b600080600080600080600060e0888a031215613e5b57613e5a613a65565b5b600088013567ffffffffffffffff811115613e7957613e78613a6a565b5b613e858a828b01613e0e565b975050602088013567ffffffffffffffff811115613ea657613ea5613a6a565b5b613eb28a828b01613e0e565b965050604088013567ffffffffffffffff811115613ed357613ed2613a6a565b5b613edf8a828b01613e0e565b955050606088013567ffffffffffffffff811115613f0057613eff613a6a565b5b613f0c8a828b01613e0e565b945050608088013567ffffffffffffffff811115613f2d57613f2c613a6a565b5b613f398a828b01613e0e565b93505060a088013567ffffffffffffffff811115613f5a57613f59613a6a565b5b613f668a828b01613e0e565b92505060c0613f778a828b01613bfd565b91505092959891949750929550565b613f8f81613bdc565b82525050565b6000602082019050613faa6000830184613f86565b92915050565b600080600060608486031215613fc957613fc8613a65565b5b6000613fd786828701613cb2565b9350506020613fe886828701613cb2565b9250506040613ff986828701613bfd565b9150509250925092565b61400c81613bdc565b82525050565b600061401d82613c3f565b9050919050565b61402d81614012565b82525050565b61403c81613af4565b82525050565b600082825260208201905092915050565b600061405e82613b2a565b6140688185614042565b9350614078818560208601613b46565b61408181613b70565b840191505092915050565b6000610140830160008301516140a56000860182614003565b5060208301516140b86020860182614024565b5060408301516140cb6040860182614024565b5060608301516140de6060860182614003565b5060808301516140f16080860182614033565b5060a083015184820360a08601526141098282614053565b91505060c083015184820360c08601526141238282614053565b91505060e083015184820360e086015261413d8282614053565b9150506101008301518482036101008601526141598282614053565b9150506101208301518482036101208601526141758282614053565b9150508091505092915050565b6000602082019050818103600083015261419c818461408c565b905092915050565b6000602082840312156141ba576141b9613a65565b5b60006141c884828501613cb2565b91505092915050565b600080604083850312156141e8576141e7613a65565b5b60006141f685828601613bfd565b925050602061420785828601613bfd565b9150509250929050565b600081519050919050565b600082825260208201905092915050565b6000819050602082019050919050565b6000610140830160008301516142566000860182614003565b5060208301516142696020860182614024565b50604083015161427c6040860182614024565b50606083015161428f6060860182614003565b5060808301516142a26080860182614033565b5060a083015184820360a08601526142ba8282614053565b91505060c083015184820360c08601526142d48282614053565b91505060e083015184820360e08601526142ee8282614053565b91505061010083015184820361010086015261430a8282614053565b9150506101208301518482036101208601526143268282614053565b9150508091505092915050565b600061433f838361423d565b905092915050565b6000602082019050919050565b600061435f82614211565b614369818561421c565b93508360208202850161437b8561422d565b8060005b858110156143b757848403895281516143988582614333565b94506143a383614347565b925060208a0199505060018101905061437f565b50829750879550505050505092915050565b600060208201905081810360008301526143e38184614354565b905092915050565b6143f481613af4565b81146143ff57600080fd5b50565b600081359050614411816143eb565b92915050565b6000806040838503121561442e5761442d613a65565b5b600061443c85828601613cb2565b925050602061444d85828601614402565b9150509250929050565b600067ffffffffffffffff82111561447257614471613d11565b5b61447b82613b70565b9050602081019050919050565b600061449b61449684614457565b613d71565b9050828152602081018484840111156144b7576144b6613d0c565b5b6144c2848285613dbd565b509392505050565b600082601f8301126144df576144de613d07565b5b81356144ef848260208601614488565b91505092915050565b6000806000806080858703121561451257614511613a65565b5b600061452087828801613cb2565b945050602061453187828801613cb2565b935050604061454287828801613bfd565b925050606085013567ffffffffffffffff81111561456357614562613a6a565b5b61456f878288016144ca565b91505092959194509250565b6000806040838503121561459257614591613a65565b5b60006145a085828601613cb2565b92505060206145b185828601613cb2565b9150509250929050565b7f4e487b7100000000000000000000000000000000000000000000000000000000600052602260045260246000fd5b6000600282049050600182168061460257607f821691505b602082108103614615576146146145bb565b5b50919050565b7f4552433732313a20617070726f76616c20746f2063757272656e74206f776e6560008201527f7200000000000000000000000000000000000000000000000000000000000000602082015250565b6000614677602183613b35565b91506146828261461b565b604082019050919050565b600060208201905081810360008301526146a68161466a565b9050919050565b7f4552433732313a20617070726f76652063616c6c6572206973206e6f7420746f60008201527f6b656e206f776e6572206f7220617070726f76656420666f7220616c6c000000602082015250565b6000614709603d83613b35565b9150614714826146ad565b604082019050919050565b60006020820190508181036000830152614738816146fc565b9050919050565b7f4552433732313a2063616c6c6572206973206e6f7420746f6b656e206f776e6560008201527f72206f7220617070726f76656400000000000000000000000000000000000000602082015250565b600061479b602d83613b35565b91506147a68261473f565b604082019050919050565b600060208201905081810360008301526147ca8161478e565b9050919050565b7f4552433732313a20696e76616c696420746f6b656e2049440000000000000000600082015250565b6000614807601883613b35565b9150614812826147d1565b602082019050919050565b60006020820190508181036000830152614836816147fa565b9050919050565b7f4552433732313a2061646472657373207a65726f206973206e6f74206120766160008201527f6c6964206f776e65720000000000000000000000000000000000000000000000602082015250565b6000614899602983613b35565b91506148a48261483d565b604082019050919050565b600060208201905081810360008301526148c88161488c565b9050919050565b7f4f6e6c79206974656d206f776e65722063616e20706572666f726d207468697360008201527f206f7065726174696f6e00000000000000000000000000000000000000000000602082015250565b600061492b602a83613b35565b9150614936826148cf565b604082019050919050565b6000602082019050818103600083015261495a8161491e565b9050919050565b7f5072696365206d75737420657175616c20746f206c6973742070726963650000600082015250565b6000614997601e83613b35565b91506149a282614961565b602082019050919050565b600060208201905081810360008301526149c68161498a565b9050919050565b7f4e487b7100000000000000000000000000000000000000000000000000000000600052601160045260246000fd5b6000614a0782613bdc565b9150614a1283613bdc565b9250828203905081811115614a2a57614a296149cd565b5b92915050565b6000614a3b82613bdc565b9150614a4683613bdc565b9250828201905080821115614a5e57614a5d6149cd565b5b92915050565b7f4e487b7100000000000000000000000000000000000000000000000000000000600052603260045260246000fd5b6000614a9e82613bdc565b91507fffffffffffffffffffffffffffffffffffffffffffffffffffffffffffffffff8203614ad057614acf6149cd565b5b600182019050919050565b7f6f6e6c79206f776e6572206f6620746865206d61726b6574706c61636520636160008201527f6e206368616e676520746865206c697374696e67207072696365000000000000602082015250565b6000614b37603a83613b35565b9150614b4282614adb565b604082019050919050565b60006020820190508181036000830152614b6681614b2a565b9050919050565b7f506c65617365207375626d6974207468652061736b696e67207072696365206960008201527f6e20746865206f7264657220746f20636f6d706c65746520746865207075726360208201527f6861736500000000000000000000000000000000000000000000000000000000604082015250565b6000614bef604483613b35565b9150614bfa82614b6d565b606082019050919050565b60006020820190508181036000830152614c1e81614be2565b9050919050565b7f53656c6c6572732063616e277420627579207468656972206f776e206e667400600082015250565b6000614c5b601f83613b35565b9150614c6682614c25565b602082019050919050565b60006020820190508181036000830152614c8a81614c4e565b9050919050565b600081905092915050565b6000614ca782613b2a565b614cb18185614c91565b9350614cc1818560208601613b46565b80840191505092915050565b6000614cd98285614c9c565b9150614ce58284614c9c565b91508190509392505050565b7f4552433732313a206d696e7420746f20746865207a65726f2061646472657373600082015250565b6000614d27602083613b35565b9150614d3282614cf1565b602082019050919050565b60006020820190508181036000830152614d5681614d1a565b9050919050565b7f4552433732313a20746f6b656e20616c7265616479206d696e74656400000000600082015250565b6000614d93601c83613b35565b9150614d9e82614d5d565b602082019050919050565b60006020820190508181036000830152614dc281614d86565b9050919050565b7f45524337323155524953746f726167653a2055524920736574206f66206e6f6e60008201527f6578697374656e7420746f6b656e000000000000000000000000000000000000602082015250565b6000614e25602e83613b35565b9150614e3082614dc9565b604082019050919050565b60006020820190508181036000830152614e5481614e18565b9050919050565b60008190508160005260206000209050919050565b60006020601f8301049050919050565b600082821b905092915050565b600060088302614ebd7fffffffffffffffffffffffffffffffffffffffffffffffffffffffffffffffff82614e80565b614ec78683614e80565b95508019841693508086168417925050509392505050565b6000819050919050565b6000614f04614eff614efa84613bdc565b614edf565b613bdc565b9050919050565b6000819050919050565b614f1e83614ee9565b614f32614f2a82614f0b565b848454614e8d565b825550505050565b600090565b614f47614f3a565b614f52818484614f15565b505050565b5b81811015614f7657614f6b600082614f3f565b600181019050614f58565b5050565b601f821115614fbb57614f8c81614e5b565b614f9584614e70565b81016020851015614fa4578190505b614fb8614fb085614e70565b830182614f57565b50505b505050565b600082821c905092915050565b6000614fde60001984600802614fc0565b1980831691505092915050565b6000614ff78383614fcd565b9150826002028217905092915050565b61501082613b2a565b67ffffffffffffffff81111561502957615028613d11565b5b61503382546145ea565b61503e828285614f7a565b600060209050601f831160018114615071576000841561505f578287015190505b6150698582614feb565b8655506150d1565b601f19841661507f86614e5b565b60005b828110156150a757848901518255600182019150602085019450602081019050615082565b868310156150c457848901516150c0601f891682614fcd565b8355505b6001600288020188555050505b505050505050565b7f5072696365206d75737420626520616c206c6573742031000000000000000000600082015250565b600061510f601783613b35565b915061511a826150d9565b602082019050919050565b6000602082019050818103600083015261513e81615102565b9050919050565b7f5072696365206d75737420626520657175616c20746f206c697374696e67207060008201527f7269636500000000000000000000000000000000000000000000000000000000602082015250565b60006151a1602483613b35565b91506151ac82615145565b604082019050919050565b600060208201905081810360008301526151d081615194565b9050919050565b6000610120820190506151ed600083018c613c71565b6151fa602083018b613c71565b615207604083018a613f86565b6152146060830189613b00565b81810360808301526152268188613b81565b905081810360a083015261523a8187613b81565b905081810360c083015261524e8186613b81565b905081810360e08301526152628185613b81565b90508181036101008301526152778184613b81565b90509a9950505050505050505050565b7f4552433732313a207472616e736665722066726f6d20696e636f72726563742060008201527f6f776e6572000000000000000000000000000000000000000000000000000000602082015250565b60006152e3602583613b35565b91506152ee82615287565b604082019050919050565b60006020820190508181036000830152615312816152d6565b9050919050565b7f4552433732313a207472616e7366657220746f20746865207a65726f2061646460008201527f7265737300000000000000000000000000000000000000000000000000000000602082015250565b6000615375602483613b35565b915061538082615319565b604082019050919050565b600060208201905081810360008301526153a481615368565b9050919050565b7f436f756e7465723a2064656372656d656e74206f766572666c6f770000000000600082015250565b60006153e1601b83613b35565b91506153ec826153ab565b602082019050919050565b60006020820190508181036000830152615410816153d4565b9050919050565b7f4552433732313a20617070726f766520746f2063616c6c657200000000000000600082015250565b600061544d601983613b35565b915061545882615417565b602082019050919050565b6000602082019050818103600083015261547c81615440565b9050919050565b7f4552433732313a207472616e7366657220746f206e6f6e20455243373231526560008201527f63656976657220696d706c656d656e7465720000000000000000000000000000602082015250565b60006154df603283613b35565b91506154ea82615483565b604082019050919050565b6000602082019050818103600083015261550e816154d2565b9050919050565b600081519050919050565b600082825260208201905092915050565b600061553c82615515565b6155468185615520565b9350615556818560208601613b46565b61555f81613b70565b840191505092915050565b600060808201905061557f6000830187613c71565b61558c6020830186613c71565b6155996040830185613f86565b81810360608301526155ab8184615531565b905095945050505050565b6000815190506155c581613a9b565b92915050565b6000602082840312156155e1576155e0613a65565b5b60006155ef848285016155b6565b91505092915050565b7f4e487b7100000000000000000000000000000000000000000000000000000000600052601260045260246000fdfea26469706673582212202e6309b769314543bc1c639fb07e170a077e334fb922fd4b9956ad8fc977bc4964736f6c63430008110033",
  "linkReferences": {},
  "deployedLinkReferences": {}
}